{
  "_format": "hh-sol-artifact-1",
  "contractName": "BitsmonNFT",
  "sourceName": "contracts/BitsmonNFT.sol",
  "abi": [
    {
      "inputs": [],
      "stateMutability": "nonpayable",
      "type": "constructor"
    },
    {
      "inputs": [
        {
          "internalType": "address",
          "name": "sender",
          "type": "address"
        },
        {
          "internalType": "uint256",
          "name": "balance",
          "type": "uint256"
        },
        {
          "internalType": "uint256",
          "name": "needed",
          "type": "uint256"
        },
        {
          "internalType": "uint256",
          "name": "tokenId",
          "type": "uint256"
        }
      ],
      "name": "ERC1155InsufficientBalance",
      "type": "error"
    },
    {
      "inputs": [
        {
          "internalType": "address",
          "name": "approver",
          "type": "address"
        }
      ],
      "name": "ERC1155InvalidApprover",
      "type": "error"
    },
    {
      "inputs": [
        {
          "internalType": "uint256",
          "name": "idsLength",
          "type": "uint256"
        },
        {
          "internalType": "uint256",
          "name": "valuesLength",
          "type": "uint256"
        }
      ],
      "name": "ERC1155InvalidArrayLength",
      "type": "error"
    },
    {
      "inputs": [
        {
          "internalType": "address",
          "name": "operator",
          "type": "address"
        }
      ],
      "name": "ERC1155InvalidOperator",
      "type": "error"
    },
    {
      "inputs": [
        {
          "internalType": "address",
          "name": "receiver",
          "type": "address"
        }
      ],
      "name": "ERC1155InvalidReceiver",
      "type": "error"
    },
    {
      "inputs": [
        {
          "internalType": "address",
          "name": "sender",
          "type": "address"
        }
      ],
      "name": "ERC1155InvalidSender",
      "type": "error"
    },
    {
      "inputs": [
        {
          "internalType": "address",
          "name": "operator",
          "type": "address"
        },
        {
          "internalType": "address",
          "name": "owner",
          "type": "address"
        }
      ],
      "name": "ERC1155MissingApprovalForAll",
      "type": "error"
    },
    {
      "inputs": [
        {
          "internalType": "address",
          "name": "owner",
          "type": "address"
        }
      ],
      "name": "OwnableInvalidOwner",
      "type": "error"
    },
    {
      "inputs": [
        {
          "internalType": "address",
          "name": "account",
          "type": "address"
        }
      ],
      "name": "OwnableUnauthorizedAccount",
      "type": "error"
    },
    {
      "inputs": [],
      "name": "ReentrancyGuardReentrantCall",
      "type": "error"
    },
    {
      "anonymous": false,
      "inputs": [
        {
          "indexed": true,
          "internalType": "address",
          "name": "account",
          "type": "address"
        },
        {
          "indexed": true,
          "internalType": "address",
          "name": "operator",
          "type": "address"
        },
        {
          "indexed": false,
          "internalType": "bool",
          "name": "approved",
          "type": "bool"
        }
      ],
      "name": "ApprovalForAll",
      "type": "event"
    },
    {
      "anonymous": false,
      "inputs": [
        {
          "indexed": false,
          "internalType": "string",
          "name": "message",
          "type": "string"
        },
        {
          "indexed": false,
          "internalType": "uint256",
          "name": "value",
          "type": "uint256"
        }
      ],
      "name": "Debug",
      "type": "event"
    },
    {
      "anonymous": false,
      "inputs": [
        {
          "indexed": true,
          "internalType": "address",
          "name": "account",
          "type": "address"
        },
        {
          "indexed": false,
          "internalType": "uint256[]",
          "name": "ids",
          "type": "uint256[]"
        },
        {
          "indexed": false,
          "internalType": "uint256[]",
          "name": "amounts",
          "type": "uint256[]"
        },
        {
          "indexed": false,
          "internalType": "uint256",
          "name": "allowence",
          "type": "uint256"
        }
      ],
      "name": "MintBitsmon",
      "type": "event"
    },
    {
      "anonymous": false,
      "inputs": [
        {
          "indexed": true,
          "internalType": "address",
          "name": "previousOwner",
          "type": "address"
        },
        {
          "indexed": true,
          "internalType": "address",
          "name": "newOwner",
          "type": "address"
        }
      ],
      "name": "OwnershipTransferred",
      "type": "event"
    },
    {
      "anonymous": false,
      "inputs": [
        {
          "indexed": true,
          "internalType": "address",
          "name": "operator",
          "type": "address"
        },
        {
          "indexed": true,
          "internalType": "address",
          "name": "from",
          "type": "address"
        },
        {
          "indexed": true,
          "internalType": "address",
          "name": "to",
          "type": "address"
        },
        {
          "indexed": false,
          "internalType": "uint256[]",
          "name": "ids",
          "type": "uint256[]"
        },
        {
          "indexed": false,
          "internalType": "uint256[]",
          "name": "values",
          "type": "uint256[]"
        }
      ],
      "name": "TransferBatch",
      "type": "event"
    },
    {
      "anonymous": false,
      "inputs": [
        {
          "indexed": true,
          "internalType": "address",
          "name": "operator",
          "type": "address"
        },
        {
          "indexed": true,
          "internalType": "address",
          "name": "from",
          "type": "address"
        },
        {
          "indexed": true,
          "internalType": "address",
          "name": "to",
          "type": "address"
        },
        {
          "indexed": false,
          "internalType": "uint256",
          "name": "id",
          "type": "uint256"
        },
        {
          "indexed": false,
          "internalType": "uint256",
          "name": "value",
          "type": "uint256"
        }
      ],
      "name": "TransferSingle",
      "type": "event"
    },
    {
      "anonymous": false,
      "inputs": [
        {
          "indexed": false,
          "internalType": "string",
          "name": "value",
          "type": "string"
        },
        {
          "indexed": true,
          "internalType": "uint256",
          "name": "id",
          "type": "uint256"
        }
      ],
      "name": "URI",
      "type": "event"
    },
    {
      "anonymous": false,
      "inputs": [
        {
          "indexed": true,
          "internalType": "address",
          "name": "account",
          "type": "address"
        },
        {
          "indexed": false,
          "internalType": "bool",
          "name": "isAdmin",
          "type": "bool"
        }
      ],
      "name": "UpdateAdmin",
      "type": "event"
    },
    {
      "anonymous": false,
      "inputs": [
        {
          "indexed": false,
          "internalType": "string",
          "name": "uri",
          "type": "string"
        }
      ],
      "name": "UpdateURI",
      "type": "event"
    },
    {
      "anonymous": false,
      "inputs": [
        {
          "indexed": true,
          "internalType": "address",
          "name": "account",
          "type": "address"
        },
        {
          "indexed": false,
          "internalType": "uint256",
          "name": "newAllowance",
          "type": "uint256"
        }
      ],
      "name": "WhitelistUpdated",
      "type": "event"
    },
    {
      "inputs": [],
      "name": "COMMON",
      "outputs": [
        {
          "internalType": "uint256",
          "name": "",
          "type": "uint256"
        }
      ],
      "stateMutability": "view",
      "type": "function"
    },
    {
      "inputs": [],
      "name": "LEGENDARY",
      "outputs": [
        {
          "internalType": "uint256",
          "name": "",
          "type": "uint256"
        }
      ],
      "stateMutability": "view",
      "type": "function"
    },
    {
      "inputs": [],
      "name": "MYTHIC",
      "outputs": [
        {
          "internalType": "uint256",
          "name": "",
          "type": "uint256"
        }
      ],
      "stateMutability": "view",
      "type": "function"
    },
    {
      "inputs": [],
      "name": "RARE",
      "outputs": [
        {
          "internalType": "uint256",
          "name": "",
          "type": "uint256"
        }
      ],
      "stateMutability": "view",
      "type": "function"
    },
    {
      "inputs": [],
      "name": "UNCOMMON",
      "outputs": [
        {
          "internalType": "uint256",
          "name": "",
          "type": "uint256"
        }
      ],
      "stateMutability": "view",
      "type": "function"
    },
    {
      "inputs": [
        {
          "internalType": "address",
          "name": "account",
          "type": "address"
        },
        {
          "internalType": "uint256",
          "name": "allowance",
          "type": "uint256"
        }
      ],
      "name": "addWhitelist",
      "outputs": [],
      "stateMutability": "nonpayable",
      "type": "function"
    },
    {
      "inputs": [
        {
          "internalType": "address",
          "name": "",
          "type": "address"
        }
      ],
      "name": "admins",
      "outputs": [
        {
          "internalType": "bool",
          "name": "",
          "type": "bool"
        }
      ],
      "stateMutability": "view",
      "type": "function"
    },
    {
      "inputs": [
        {
          "internalType": "address",
          "name": "account",
          "type": "address"
        },
        {
          "internalType": "uint256",
          "name": "id",
          "type": "uint256"
        }
      ],
      "name": "balanceOf",
      "outputs": [
        {
          "internalType": "uint256",
          "name": "",
          "type": "uint256"
        }
      ],
      "stateMutability": "view",
      "type": "function"
    },
    {
      "inputs": [
        {
          "internalType": "address[]",
          "name": "accounts",
          "type": "address[]"
        },
        {
          "internalType": "uint256[]",
          "name": "ids",
          "type": "uint256[]"
        }
      ],
      "name": "balanceOfBatch",
      "outputs": [
        {
          "internalType": "uint256[]",
          "name": "",
          "type": "uint256[]"
        }
      ],
      "stateMutability": "view",
      "type": "function"
    },
    {
      "inputs": [
        {
          "internalType": "address",
          "name": "account",
          "type": "address"
        },
        {
          "internalType": "uint256",
          "name": "allowance",
          "type": "uint256"
        }
      ],
      "name": "decreaseWhitelist",
      "outputs": [],
      "stateMutability": "nonpayable",
      "type": "function"
    },
    {
      "inputs": [
        {
          "internalType": "address",
          "name": "account",
          "type": "address"
        }
      ],
      "name": "getWhitelist",
      "outputs": [
        {
          "internalType": "uint256",
          "name": "",
          "type": "uint256"
        }
      ],
      "stateMutability": "view",
      "type": "function"
    },
    {
      "inputs": [
        {
          "internalType": "address",
          "name": "account",
          "type": "address"
        },
        {
          "internalType": "address",
          "name": "operator",
          "type": "address"
        }
      ],
      "name": "isApprovedForAll",
      "outputs": [
        {
          "internalType": "bool",
          "name": "",
          "type": "bool"
        }
      ],
      "stateMutability": "view",
      "type": "function"
    },
    {
      "inputs": [],
      "name": "name",
      "outputs": [
        {
          "internalType": "string",
          "name": "",
          "type": "string"
        }
      ],
      "stateMutability": "view",
      "type": "function"
    },
    {
      "inputs": [],
      "name": "owner",
      "outputs": [
        {
          "internalType": "address",
          "name": "",
          "type": "address"
        }
      ],
      "stateMutability": "view",
      "type": "function"
    },
    {
      "inputs": [],
      "name": "renounceOwnership",
      "outputs": [],
      "stateMutability": "nonpayable",
      "type": "function"
    },
    {
      "inputs": [
        {
          "internalType": "address",
          "name": "from",
          "type": "address"
        },
        {
          "internalType": "address",
          "name": "to",
          "type": "address"
        },
        {
          "internalType": "uint256[]",
          "name": "ids",
          "type": "uint256[]"
        },
        {
          "internalType": "uint256[]",
          "name": "values",
          "type": "uint256[]"
        },
        {
          "internalType": "bytes",
          "name": "data",
          "type": "bytes"
        }
      ],
      "name": "safeBatchTransferFrom",
      "outputs": [],
      "stateMutability": "nonpayable",
      "type": "function"
    },
    {
      "inputs": [
        {
          "internalType": "address",
          "name": "account",
          "type": "address"
        },
        {
          "internalType": "uint256",
          "name": "count",
          "type": "uint256"
        }
      ],
      "name": "safeMint",
      "outputs": [],
      "stateMutability": "nonpayable",
      "type": "function"
    },
    {
      "inputs": [
        {
          "internalType": "address",
          "name": "from",
          "type": "address"
        },
        {
          "internalType": "address",
          "name": "to",
          "type": "address"
        },
        {
          "internalType": "uint256",
          "name": "id",
          "type": "uint256"
        },
        {
          "internalType": "uint256",
          "name": "value",
          "type": "uint256"
        },
        {
          "internalType": "bytes",
          "name": "data",
          "type": "bytes"
        }
      ],
      "name": "safeTransferFrom",
      "outputs": [],
      "stateMutability": "nonpayable",
      "type": "function"
    },
    {
      "inputs": [
        {
          "internalType": "address",
          "name": "account",
          "type": "address"
        },
        {
          "internalType": "bool",
          "name": "isAdmin",
          "type": "bool"
        }
      ],
      "name": "setAdmin",
      "outputs": [],
      "stateMutability": "nonpayable",
      "type": "function"
    },
    {
      "inputs": [
        {
          "internalType": "address",
          "name": "operator",
          "type": "address"
        },
        {
          "internalType": "bool",
          "name": "approved",
          "type": "bool"
        }
      ],
      "name": "setApprovalForAll",
      "outputs": [],
      "stateMutability": "nonpayable",
      "type": "function"
    },
    {
      "inputs": [
        {
          "internalType": "string",
          "name": "newuri",
          "type": "string"
        }
      ],
      "name": "setURI",
      "outputs": [],
      "stateMutability": "nonpayable",
      "type": "function"
    },
    {
      "inputs": [
        {
          "internalType": "bytes4",
          "name": "interfaceId",
          "type": "bytes4"
        }
      ],
      "name": "supportsInterface",
      "outputs": [
        {
          "internalType": "bool",
          "name": "",
          "type": "bool"
        }
      ],
      "stateMutability": "view",
      "type": "function"
    },
    {
      "inputs": [],
      "name": "symbol",
      "outputs": [
        {
          "internalType": "string",
          "name": "",
          "type": "string"
        }
      ],
      "stateMutability": "view",
      "type": "function"
    },
    {
      "inputs": [
        {
          "internalType": "address",
          "name": "newOwner",
          "type": "address"
        }
      ],
      "name": "transferOwnership",
      "outputs": [],
      "stateMutability": "nonpayable",
      "type": "function"
    },
    {
      "inputs": [
        {
          "internalType": "uint256",
          "name": "_id",
          "type": "uint256"
        }
      ],
      "name": "uri",
      "outputs": [
        {
          "internalType": "string",
          "name": "",
          "type": "string"
        }
      ],
      "stateMutability": "view",
      "type": "function"
    },
    {
      "inputs": [
        {
          "internalType": "address",
          "name": "",
          "type": "address"
        }
      ],
      "name": "whitelist",
      "outputs": [
        {
          "internalType": "uint256",
          "name": "",
          "type": "uint256"
        }
      ],
      "stateMutability": "view",
      "type": "function"
    }
  ],
  "bytecode": "0x60806040526040518060400160405280600781526020017f426974736d6f6e00000000000000000000000000000000000000000000000000815250600590816200004a9190620004bc565b506040518060400160405280600481526020017f4254534d0000000000000000000000000000000000000000000000000000000081525060069081620000919190620004bc565b506000600955348015620000a457600080fd5b50336040518060a00160405280606281526020016200481960629139620000d1816200016760201b60201c565b50600073ffffffffffffffffffffffffffffffffffffffff168173ffffffffffffffffffffffffffffffffffffffff1603620001475760006040517f1e4fbdf70000000000000000000000000000000000000000000000000000000081526004016200013e9190620005e8565b60405180910390fd5b62000158816200017c60201b60201c565b50600160048190555062000605565b8060029081620001789190620004bc565b5050565b6000600360009054906101000a900473ffffffffffffffffffffffffffffffffffffffff16905081600360006101000a81548173ffffffffffffffffffffffffffffffffffffffff021916908373ffffffffffffffffffffffffffffffffffffffff1602179055508173ffffffffffffffffffffffffffffffffffffffff168173ffffffffffffffffffffffffffffffffffffffff167f8be0079c531659141344cd1fd0a4f28419497f9722a3daafe3b4186f6b6457e060405160405180910390a35050565b600081519050919050565b7f4e487b7100000000000000000000000000000000000000000000000000000000600052604160045260246000fd5b7f4e487b7100000000000000000000000000000000000000000000000000000000600052602260045260246000fd5b60006002820490506001821680620002c457607f821691505b602082108103620002da57620002d96200027c565b5b50919050565b60008190508160005260206000209050919050565b60006020601f8301049050919050565b600082821b905092915050565b600060088302620003447fffffffffffffffffffffffffffffffffffffffffffffffffffffffffffffffff8262000305565b62000350868362000305565b95508019841693508086168417925050509392505050565b6000819050919050565b6000819050919050565b60006200039d62000397620003918462000368565b62000372565b62000368565b9050919050565b6000819050919050565b620003b9836200037c565b620003d1620003c882620003a4565b84845462000312565b825550505050565b600090565b620003e8620003d9565b620003f5818484620003ae565b505050565b5b818110156200041d5762000411600082620003de565b600181019050620003fb565b5050565b601f8211156200046c576200043681620002e0565b6200044184620002f5565b8101602085101562000451578190505b620004696200046085620002f5565b830182620003fa565b50505b505050565b600082821c905092915050565b6000620004916000198460080262000471565b1980831691505092915050565b6000620004ac83836200047e565b9150826002028217905092915050565b620004c78262000242565b67ffffffffffffffff811115620004e357620004e26200024d565b5b620004ef8254620002ab565b620004fc82828562000421565b600060209050601f8311600181146200053457600084156200051f578287015190505b6200052b85826200049e565b8655506200059b565b601f1984166200054486620002e0565b60005b828110156200056e5784890151825560018201915060208501945060208101905062000547565b868310156200058e57848901516200058a601f8916826200047e565b8355505b6001600288020188555050505b505050505050565b600073ffffffffffffffffffffffffffffffffffffffff82169050919050565b6000620005d082620005a3565b9050919050565b620005e281620005c3565b82525050565b6000602082019050620005ff6000830184620005d7565b92915050565b61420480620006156000396000f3fe608060405234801561001057600080fd5b506004361061018d5760003560e01c80638da5cb5b116100de578063b39d900911610097578063e140d1e111610071578063e140d1e114610482578063e985e9c5146104a0578063f242432a146104d0578063f2fde38b146104ec5761018d565b8063b39d90091461042c578063cb77934614610448578063e0b8fd86146104645761018d565b80638da5cb5b1461036a5780639382b6f01461038857806395d89b41146103a65780639b19251a146103c4578063a1448194146103f4578063a22cb465146104105761018d565b806330edc0f51161014b5780634b0bddd2116101255780634b0bddd2146102f65780634e1273f414610312578063715018a614610342578063816171c01461034c5761018d565b806330edc0f514610278578063429b62e5146102a857806346e6a86c146102d85761018d565b8062fdd58e1461019257806301ffc9a7146101c257806302fe5305146101f257806306fdde031461020e5780630e89341c1461022c5780632eb2c2d61461025c575b600080fd5b6101ac60048036038101906101a79190612b26565b610508565b6040516101b99190612b75565b60405180910390f35b6101dc60048036038101906101d79190612be8565b610562565b6040516101e99190612c30565b60405180910390f35b61020c60048036038101906102079190612d91565b610644565b005b61021661068f565b6040516102239190612e59565b60405180910390f35b61024660048036038101906102419190612e7b565b61071d565b6040516102539190612e59565b60405180910390f35b61027660048036038101906102719190613011565b610758565b005b610292600480360381019061028d91906130e0565b610800565b60405161029f9190612b75565b60405180910390f35b6102c260048036038101906102bd91906130e0565b610849565b6040516102cf9190612c30565b60405180910390f35b6102e0610869565b6040516102ed9190612b75565b60405180910390f35b610310600480360381019061030b9190613139565b61086e565b005b61032c6004803603810190610327919061323c565b61096b565b6040516103399190613372565b60405180910390f35b61034a610a74565b005b610354610a88565b6040516103619190612b75565b60405180910390f35b610372610a8d565b60405161037f91906133a3565b60405180910390f35b610390610ab7565b60405161039d9190612b75565b60405180910390f35b6103ae610abc565b6040516103bb9190612e59565b60405180910390f35b6103de60048036038101906103d991906130e0565b610b4a565b6040516103eb9190612b75565b60405180910390f35b61040e60048036038101906104099190612b26565b610b62565b005b61042a60048036038101906104259190613139565b61112f565b005b61044660048036038101906104419190612b26565b611145565b005b610462600480360381019061045d9190612b26565b6112fb565b005b61046c6114f0565b6040516104799190612b75565b60405180910390f35b61048a6114f5565b6040516104979190612b75565b60405180910390f35b6104ba60048036038101906104b591906133be565b6114fa565b6040516104c79190612c30565b60405180910390f35b6104ea60048036038101906104e591906133fe565b61158e565b005b610506600480360381019061050191906130e0565b611636565b005b600080600083815260200190815260200160002060008473ffffffffffffffffffffffffffffffffffffffff1673ffffffffffffffffffffffffffffffffffffffff16815260200190815260200160002054905092915050565b60007fd9b67a26000000000000000000000000000000000000000000000000000000007bffffffffffffffffffffffffffffffffffffffffffffffffffffffff1916827bffffffffffffffffffffffffffffffffffffffffffffffffffffffff1916148061062d57507f0e89341c000000000000000000000000000000000000000000000000000000007bffffffffffffffffffffffffffffffffffffffffffffffffffffffff1916827bffffffffffffffffffffffffffffffffffffffffffffffffffffffff1916145b8061063d575061063c826116bc565b5b9050919050565b61064c611726565b610655816117ad565b7f7d6e10e74d1c60489c754e7491b7d49907732ac426f0254914810d50ba6cc218816040516106849190612e59565b60405180910390a150565b6005805461069c906134c4565b80601f01602080910402602001604051908101604052809291908181526020018280546106c8906134c4565b80156107155780601f106106ea57610100808354040283529160200191610715565b820191906000526020600020905b8154815290600101906020018083116106f857829003601f168201915b505050505081565b6060610728826117c0565b61073183611854565b60405160200161074292919061357d565b6040516020818303038152906040529050919050565b6000610762611922565b90508073ffffffffffffffffffffffffffffffffffffffff168673ffffffffffffffffffffffffffffffffffffffff16141580156107a757506107a586826114fa565b155b156107eb5780866040517fe237d9220000000000000000000000000000000000000000000000000000000081526004016107e29291906135ac565b60405180910390fd5b6107f8868686868661192a565b505050505050565b6000600760008373ffffffffffffffffffffffffffffffffffffffff1673ffffffffffffffffffffffffffffffffffffffff168152602001908152602001600020549050919050565b60086020528060005260406000206000915054906101000a900460ff1681565b600081565b610876611726565b80600860008473ffffffffffffffffffffffffffffffffffffffff1673ffffffffffffffffffffffffffffffffffffffff16815260200190815260200160002060006101000a81548160ff0219169083151502179055508173ffffffffffffffffffffffffffffffffffffffff167fae0a768e1f5a7943e3f1bb8a4d503c6fbfea4c9bbbded6b463e48bebd28ef725600860008573ffffffffffffffffffffffffffffffffffffffff1673ffffffffffffffffffffffffffffffffffffffff16815260200190815260200160002060009054906101000a900460ff1660405161095f9190612c30565b60405180910390a25050565b606081518351146109b757815183516040517f5b0599910000000000000000000000000000000000000000000000000000000081526004016109ae9291906135d5565b60405180910390fd5b6000835167ffffffffffffffff8111156109d4576109d3612c66565b5b604051908082528060200260200182016040528015610a025781602001602082028036833780820191505090505b50905060005b8451811015610a6957610a3f610a278287611a2290919063ffffffff16565b610a3a8387611a3690919063ffffffff16565b610508565b828281518110610a5257610a516135fe565b5b602002602001018181525050806001019050610a08565b508091505092915050565b610a7c611726565b610a866000611a4a565b565b600281565b6000600360009054906101000a900473ffffffffffffffffffffffffffffffffffffffff16905090565b600381565b60068054610ac9906134c4565b80601f0160208091040260200160405190810160405280929190818152602001828054610af5906134c4565b8015610b425780601f10610b1757610100808354040283529160200191610b42565b820191906000526020600020905b815481529060010190602001808311610b2557829003601f168201915b505050505081565b60076020528060005260406000206000915090505481565b610b6a611b10565b60008111610bad576040517f08c379a0000000000000000000000000000000000000000000000000000000008152600401610ba490613679565b60405180910390fd5b600a811115610bf1576040517f08c379a0000000000000000000000000000000000000000000000000000000008152600401610be8906136e5565b60405180910390fd5b600760008373ffffffffffffffffffffffffffffffffffffffff1673ffffffffffffffffffffffffffffffffffffffff16815260200190815260200160002054811115610c73576040517f08c379a0000000000000000000000000000000000000000000000000000000008152600401610c6a90613751565b60405180910390fd5b7f3c5ad147104e56be34a9176a6692f7df8d2f4b29a5af06bc6b98970d329d657781604051610ca291906137bd565b60405180910390a16000610cb582611b56565b90507f3c5ad147104e56be34a9176a6692f7df8d2f4b29a5af06bc6b98970d329d657782604051610ce69190613837565b60405180910390a16000806000805b8451811015610d57576000858281518110610d1357610d126135fe565b5b60200260200101511115610d4a578380610d2c90613894565b9450508092506001841115610d445760009150610d49565b600191505b5b8080600101915050610cf5565b507f3c5ad147104e56be34a9176a6692f7df8d2f4b29a5af06bc6b98970d329d657785604051610d879190613928565b60405180910390a16000818015610d9e5750600184145b610da85783610dab565b60015b67ffffffffffffffff811115610dc457610dc3612c66565b5b604051908082528060200260200182016040528015610df25781602001602082028036833780820191505090505b5090506000828015610e045750600185145b610e0e5784610e11565b60015b67ffffffffffffffff811115610e2a57610e29612c66565b5b604051908082528060200260200182016040528015610e585781602001602082028036833780820191505090505b5090507f3c5ad147104e56be34a9176a6692f7df8d2f4b29a5af06bc6b98970d329d657787604051610e8a91906139a2565b60405180910390a1828015610e9f5750600185145b15610f3a578382600081518110610eb957610eb86135fe565b5b602002602001018181525050858481518110610ed857610ed76135fe565b5b602002602001015181600081518110610ef457610ef36135fe565b5b602002602001018181525050610f358885888781518110610f1857610f176135fe565b5b602002602001015160405180602001604052806000815250611d95565b610ffe565b6000805b8751811015610fe0576000888281518110610f5c57610f5b6135fe565b5b60200260200101511115610fd35780848381518110610f7e57610f7d6135fe565b5b602002602001018181525050878181518110610f9d57610f9c6135fe565b5b6020026020010151838381518110610fb857610fb76135fe565b5b6020026020010181815250508180610fcf90613894565b9250505b8080600101915050610f3e565b50610ffc89848460405180602001604052806000815250611e2e565b505b86600760008a73ffffffffffffffffffffffffffffffffffffffff1673ffffffffffffffffffffffffffffffffffffffff1681526020019081526020016000205461104991906139d0565b600760008a73ffffffffffffffffffffffffffffffffffffffff1673ffffffffffffffffffffffffffffffffffffffff168152602001908152602001600020819055508773ffffffffffffffffffffffffffffffffffffffff167f029936d7ff63949c581cd2b14f9ec08ff3f35abdf3aa3b0f33c9d669b32f96f38383600760008d73ffffffffffffffffffffffffffffffffffffffff1673ffffffffffffffffffffffffffffffffffffffff1681526020019081526020016000205460405161111593929190613a04565b60405180910390a250505050505061112b611eb4565b5050565b61114161113a611922565b8383611ebe565b5050565b600860003373ffffffffffffffffffffffffffffffffffffffff1673ffffffffffffffffffffffffffffffffffffffff16815260200190815260200160002060009054906101000a900460ff166111d1576040517f08c379a00000000000000000000000000000000000000000000000000000000081526004016111c890613a95565b60405180910390fd5b60008111611214576040517f08c379a000000000000000000000000000000000000000000000000000000000815260040161120b90613b27565b60405180910390fd5b80600760008473ffffffffffffffffffffffffffffffffffffffff1673ffffffffffffffffffffffffffffffffffffffff16815260200190815260200160002060008282546112639190613b47565b925050819055508173ffffffffffffffffffffffffffffffffffffffff167f226d670a329c4a93cf8c1a5baeceda320e89031fe0a65343c51678bd8b5a652e600760008573ffffffffffffffffffffffffffffffffffffffff1673ffffffffffffffffffffffffffffffffffffffff168152602001908152602001600020546040516112ef9190612b75565b60405180910390a25050565b600860003373ffffffffffffffffffffffffffffffffffffffff1673ffffffffffffffffffffffffffffffffffffffff16815260200190815260200160002060009054906101000a900460ff16611387576040517f08c379a000000000000000000000000000000000000000000000000000000000815260040161137e90613a95565b60405180910390fd5b80600760008473ffffffffffffffffffffffffffffffffffffffff1673ffffffffffffffffffffffffffffffffffffffff168152602001908152602001600020541015611409576040517f08c379a000000000000000000000000000000000000000000000000000000000815260040161140090613bed565b60405180910390fd5b80600760008473ffffffffffffffffffffffffffffffffffffffff1673ffffffffffffffffffffffffffffffffffffffff168152602001908152602001600020600082825461145891906139d0565b925050819055508173ffffffffffffffffffffffffffffffffffffffff167f226d670a329c4a93cf8c1a5baeceda320e89031fe0a65343c51678bd8b5a652e600760008573ffffffffffffffffffffffffffffffffffffffff1673ffffffffffffffffffffffffffffffffffffffff168152602001908152602001600020546040516114e49190612b75565b60405180910390a25050565b600181565b600481565b6000600160008473ffffffffffffffffffffffffffffffffffffffff1673ffffffffffffffffffffffffffffffffffffffff16815260200190815260200160002060008373ffffffffffffffffffffffffffffffffffffffff1673ffffffffffffffffffffffffffffffffffffffff16815260200190815260200160002060009054906101000a900460ff16905092915050565b6000611598611922565b90508073ffffffffffffffffffffffffffffffffffffffff168673ffffffffffffffffffffffffffffffffffffffff16141580156115dd57506115db86826114fa565b155b156116215780866040517fe237d9220000000000000000000000000000000000000000000000000000000081526004016116189291906135ac565b60405180910390fd5b61162e868686868661202e565b505050505050565b61163e611726565b600073ffffffffffffffffffffffffffffffffffffffff168173ffffffffffffffffffffffffffffffffffffffff16036116b05760006040517f1e4fbdf70000000000000000000000000000000000000000000000000000000081526004016116a791906133a3565b60405180910390fd5b6116b981611a4a565b50565b60007f01ffc9a7000000000000000000000000000000000000000000000000000000007bffffffffffffffffffffffffffffffffffffffffffffffffffffffff1916827bffffffffffffffffffffffffffffffffffffffffffffffffffffffff1916149050919050565b61172e611922565b73ffffffffffffffffffffffffffffffffffffffff1661174c610a8d565b73ffffffffffffffffffffffffffffffffffffffff16146117ab5761176f611922565b6040517f118cdaa70000000000000000000000000000000000000000000000000000000081526004016117a291906133a3565b60405180910390fd5b565b80600290816117bc9190613db9565b5050565b6060600280546117cf906134c4565b80601f01602080910402602001604051908101604052809291908181526020018280546117fb906134c4565b80156118485780601f1061181d57610100808354040283529160200191611848565b820191906000526020600020905b81548152906001019060200180831161182b57829003601f168201915b50505050509050919050565b60606000600161186384612139565b01905060008167ffffffffffffffff81111561188257611881612c66565b5b6040519080825280601f01601f1916602001820160405280156118b45781602001600182028036833780820191505090505b509050600082602001820190505b600115611917578080600190039150507f3031323334353637383961626364656600000000000000000000000000000000600a86061a8153600a858161190b5761190a613e8b565b5b049450600085036118c2575b819350505050919050565b600033905090565b600073ffffffffffffffffffffffffffffffffffffffff168473ffffffffffffffffffffffffffffffffffffffff160361199c5760006040517f57f447ce00000000000000000000000000000000000000000000000000000000815260040161199391906133a3565b60405180910390fd5b600073ffffffffffffffffffffffffffffffffffffffff168573ffffffffffffffffffffffffffffffffffffffff1603611a0e5760006040517f01a83514000000000000000000000000000000000000000000000000000000008152600401611a0591906133a3565b60405180910390fd5b611a1b858585858561228c565b5050505050565b600060208202602084010151905092915050565b600060208202602084010151905092915050565b6000600360009054906101000a900473ffffffffffffffffffffffffffffffffffffffff16905081600360006101000a81548173ffffffffffffffffffffffffffffffffffffffff021916908373ffffffffffffffffffffffffffffffffffffffff1602179055508173ffffffffffffffffffffffffffffffffffffffff168173ffffffffffffffffffffffffffffffffffffffff167f8be0079c531659141344cd1fd0a4f28419497f9722a3daafe3b4186f6b6457e060405160405180910390a35050565b600260045403611b4c576040517f3ee5aeb500000000000000000000000000000000000000000000000000000000815260040160405180910390fd5b6002600481905550565b60606000600567ffffffffffffffff811115611b7557611b74612c66565b5b604051908082528060200260200182016040528015611ba35781602001602082028036833780820191505090505b50905060005b83811015611d8b576000612710600143611bc391906139d0565b4033600954604051602001611bda93929190613f4e565b6040516020818303038152906040528051906020012060001c611bfd9190613f8b565b9050600185611c0c9190613b47565b424433604051602001611c2193929190613fbc565b6040516020818303038152906040528051906020012060001c611c449190613f8b565b60096000828254611c559190613b47565b92505081905550611b58811015611c985782600081518110611c7a57611c796135fe565b5b602002602001018051809190611c8f90613894565b81525050611d7d565b612328811015611cd45782600181518110611cb657611cb56135fe565b5b602002602001018051809190611ccb90613894565b81525050611d7c565b612648811015611d105782600281518110611cf257611cf16135fe565b5b602002602001018051809190611d0790613894565b81525050611d7b565b61270f811015611d4c5782600381518110611d2e57611d2d6135fe565b5b602002602001018051809190611d4390613894565b81525050611d7a565b82600481518110611d6057611d5f6135fe565b5b602002602001018051809190611d7590613894565b815250505b5b5b5b508080600101915050611ba9565b5080915050919050565b600073ffffffffffffffffffffffffffffffffffffffff168473ffffffffffffffffffffffffffffffffffffffff1603611e075760006040517f57f447ce000000000000000000000000000000000000000000000000000000008152600401611dfe91906133a3565b60405180910390fd5b600080611e14858561233e565b91509150611e2660008784848761228c565b505050505050565b600073ffffffffffffffffffffffffffffffffffffffff168473ffffffffffffffffffffffffffffffffffffffff1603611ea05760006040517f57f447ce000000000000000000000000000000000000000000000000000000008152600401611e9791906133a3565b60405180910390fd5b611eae60008585858561228c565b50505050565b6001600481905550565b600073ffffffffffffffffffffffffffffffffffffffff168273ffffffffffffffffffffffffffffffffffffffff1603611f305760006040517fced3e100000000000000000000000000000000000000000000000000000000008152600401611f2791906133a3565b60405180910390fd5b80600160008573ffffffffffffffffffffffffffffffffffffffff1673ffffffffffffffffffffffffffffffffffffffff16815260200190815260200160002060008473ffffffffffffffffffffffffffffffffffffffff1673ffffffffffffffffffffffffffffffffffffffff16815260200190815260200160002060006101000a81548160ff0219169083151502179055508173ffffffffffffffffffffffffffffffffffffffff168373ffffffffffffffffffffffffffffffffffffffff167f17307eab39ab6107e8899845ad3d59bd9653f200f220920489ca2b5937696c31836040516120219190612c30565b60405180910390a3505050565b600073ffffffffffffffffffffffffffffffffffffffff168473ffffffffffffffffffffffffffffffffffffffff16036120a05760006040517f57f447ce00000000000000000000000000000000000000000000000000000000815260040161209791906133a3565b60405180910390fd5b600073ffffffffffffffffffffffffffffffffffffffff168573ffffffffffffffffffffffffffffffffffffffff16036121125760006040517f01a8351400000000000000000000000000000000000000000000000000000000815260040161210991906133a3565b60405180910390fd5b60008061211f858561233e565b91509150612130878784848761228c565b50505050505050565b600080600090507a184f03e93ff9f4daa797ed6e38ed64bf6a1f0100000000000000008310612197577a184f03e93ff9f4daa797ed6e38ed64bf6a1f010000000000000000838161218d5761218c613e8b565b5b0492506040810190505b6d04ee2d6d415b85acef810000000083106121d4576d04ee2d6d415b85acef810000000083816121ca576121c9613e8b565b5b0492506020810190505b662386f26fc10000831061220357662386f26fc1000083816121f9576121f8613e8b565b5b0492506010810190505b6305f5e100831061222c576305f5e100838161222257612221613e8b565b5b0492506008810190505b612710831061225157612710838161224757612246613e8b565b5b0492506004810190505b60648310612274576064838161226a57612269613e8b565b5b0492506002810190505b600a8310612283576001810190505b80915050919050565b6122988585858561236e565b600073ffffffffffffffffffffffffffffffffffffffff168473ffffffffffffffffffffffffffffffffffffffff16146123375760006122d6611922565b905060018451036123265760006122f7600086611a3690919063ffffffff16565b9050600061230f600086611a3690919063ffffffff16565b905061231f838989858589612716565b5050612335565b6123348187878787876128ca565b5b505b5050505050565b60608060405191506001825283602083015260408201905060018152826020820152604081016040529250929050565b80518251146123b857815181516040517f5b0599910000000000000000000000000000000000000000000000000000000081526004016123af9291906135d5565b60405180910390fd5b60006123c2611922565b905060005b83518110156125d15760006123e58286611a3690919063ffffffff16565b905060006123fc8386611a3690919063ffffffff16565b9050600073ffffffffffffffffffffffffffffffffffffffff168873ffffffffffffffffffffffffffffffffffffffff161461252957600080600084815260200190815260200160002060008a73ffffffffffffffffffffffffffffffffffffffff1673ffffffffffffffffffffffffffffffffffffffff168152602001908152602001600020549050818110156124d157888183856040517f03dee4c50000000000000000000000000000000000000000000000000000000081526004016124c89493929190613ff9565b60405180910390fd5b81810360008085815260200190815260200160002060008b73ffffffffffffffffffffffffffffffffffffffff1673ffffffffffffffffffffffffffffffffffffffff16815260200190815260200160002081905550505b600073ffffffffffffffffffffffffffffffffffffffff168773ffffffffffffffffffffffffffffffffffffffff16146125c4578060008084815260200190815260200160002060008973ffffffffffffffffffffffffffffffffffffffff1673ffffffffffffffffffffffffffffffffffffffff16815260200190815260200160002060008282546125bc9190613b47565b925050819055505b50508060010190506123c7565b5060018351036126905760006125f1600085611a3690919063ffffffff16565b90506000612609600085611a3690919063ffffffff16565b90508573ffffffffffffffffffffffffffffffffffffffff168773ffffffffffffffffffffffffffffffffffffffff168473ffffffffffffffffffffffffffffffffffffffff167fc3d58168c5ae7397731d063d5bbf3d657854427343f4c083240f7aacaa2d0f6285856040516126819291906135d5565b60405180910390a4505061270f565b8373ffffffffffffffffffffffffffffffffffffffff168573ffffffffffffffffffffffffffffffffffffffff168273ffffffffffffffffffffffffffffffffffffffff167f4a39dc06d4c0dbc64b70af90fd698a233a518aa5d07e595d983b8c0526c8f7fb868660405161270692919061403e565b60405180910390a45b5050505050565b60008473ffffffffffffffffffffffffffffffffffffffff163b11156128c2578373ffffffffffffffffffffffffffffffffffffffff1663f23a6e6187878686866040518663ffffffff1660e01b81526004016127779594939291906140ca565b6020604051808303816000875af19250505080156127b357506040513d601f19601f820116820180604052508101906127b09190614139565b60015b612837573d80600081146127e3576040519150601f19603f3d011682016040523d82523d6000602084013e6127e8565b606091505b50600081510361282f57846040517f57f447ce00000000000000000000000000000000000000000000000000000000815260040161282691906133a3565b60405180910390fd5b805181602001fd5b63f23a6e6160e01b7bffffffffffffffffffffffffffffffffffffffffffffffffffffffff1916817bffffffffffffffffffffffffffffffffffffffffffffffffffffffff1916146128c057846040517f57f447ce0000000000000000000000000000000000000000000000000000000081526004016128b791906133a3565b60405180910390fd5b505b505050505050565b60008473ffffffffffffffffffffffffffffffffffffffff163b1115612a76578373ffffffffffffffffffffffffffffffffffffffff1663bc197c8187878686866040518663ffffffff1660e01b815260040161292b959493929190614166565b6020604051808303816000875af192505050801561296757506040513d601f19601f820116820180604052508101906129649190614139565b60015b6129eb573d8060008114612997576040519150601f19603f3d011682016040523d82523d6000602084013e61299c565b606091505b5060008151036129e357846040517f57f447ce0000000000000000000000000000000000000000000000000000000081526004016129da91906133a3565b60405180910390fd5b805181602001fd5b63bc197c8160e01b7bffffffffffffffffffffffffffffffffffffffffffffffffffffffff1916817bffffffffffffffffffffffffffffffffffffffffffffffffffffffff191614612a7457846040517f57f447ce000000000000000000000000000000000000000000000000000000008152600401612a6b91906133a3565b60405180910390fd5b505b505050505050565b6000604051905090565b600080fd5b600080fd5b600073ffffffffffffffffffffffffffffffffffffffff82169050919050565b6000612abd82612a92565b9050919050565b612acd81612ab2565b8114612ad857600080fd5b50565b600081359050612aea81612ac4565b92915050565b6000819050919050565b612b0381612af0565b8114612b0e57600080fd5b50565b600081359050612b2081612afa565b92915050565b60008060408385031215612b3d57612b3c612a88565b5b6000612b4b85828601612adb565b9250506020612b5c85828601612b11565b9150509250929050565b612b6f81612af0565b82525050565b6000602082019050612b8a6000830184612b66565b92915050565b60007fffffffff0000000000000000000000000000000000000000000000000000000082169050919050565b612bc581612b90565b8114612bd057600080fd5b50565b600081359050612be281612bbc565b92915050565b600060208284031215612bfe57612bfd612a88565b5b6000612c0c84828501612bd3565b91505092915050565b60008115159050919050565b612c2a81612c15565b82525050565b6000602082019050612c456000830184612c21565b92915050565b600080fd5b600080fd5b6000601f19601f8301169050919050565b7f4e487b7100000000000000000000000000000000000000000000000000000000600052604160045260246000fd5b612c9e82612c55565b810181811067ffffffffffffffff82111715612cbd57612cbc612c66565b5b80604052505050565b6000612cd0612a7e565b9050612cdc8282612c95565b919050565b600067ffffffffffffffff821115612cfc57612cfb612c66565b5b612d0582612c55565b9050602081019050919050565b82818337600083830152505050565b6000612d34612d2f84612ce1565b612cc6565b905082815260208101848484011115612d5057612d4f612c50565b5b612d5b848285612d12565b509392505050565b600082601f830112612d7857612d77612c4b565b5b8135612d88848260208601612d21565b91505092915050565b600060208284031215612da757612da6612a88565b5b600082013567ffffffffffffffff811115612dc557612dc4612a8d565b5b612dd184828501612d63565b91505092915050565b600081519050919050565b600082825260208201905092915050565b60005b83811015612e14578082015181840152602081019050612df9565b60008484015250505050565b6000612e2b82612dda565b612e358185612de5565b9350612e45818560208601612df6565b612e4e81612c55565b840191505092915050565b60006020820190508181036000830152612e738184612e20565b905092915050565b600060208284031215612e9157612e90612a88565b5b6000612e9f84828501612b11565b91505092915050565b600067ffffffffffffffff821115612ec357612ec2612c66565b5b602082029050602081019050919050565b600080fd5b6000612eec612ee784612ea8565b612cc6565b90508083825260208201905060208402830185811115612f0f57612f0e612ed4565b5b835b81811015612f385780612f248882612b11565b845260208401935050602081019050612f11565b5050509392505050565b600082601f830112612f5757612f56612c4b565b5b8135612f67848260208601612ed9565b91505092915050565b600067ffffffffffffffff821115612f8b57612f8a612c66565b5b612f9482612c55565b9050602081019050919050565b6000612fb4612faf84612f70565b612cc6565b905082815260208101848484011115612fd057612fcf612c50565b5b612fdb848285612d12565b509392505050565b600082601f830112612ff857612ff7612c4b565b5b8135613008848260208601612fa1565b91505092915050565b600080600080600060a0868803121561302d5761302c612a88565b5b600061303b88828901612adb565b955050602061304c88828901612adb565b945050604086013567ffffffffffffffff81111561306d5761306c612a8d565b5b61307988828901612f42565b935050606086013567ffffffffffffffff81111561309a57613099612a8d565b5b6130a688828901612f42565b925050608086013567ffffffffffffffff8111156130c7576130c6612a8d565b5b6130d388828901612fe3565b9150509295509295909350565b6000602082840312156130f6576130f5612a88565b5b600061310484828501612adb565b91505092915050565b61311681612c15565b811461312157600080fd5b50565b6000813590506131338161310d565b92915050565b600080604083850312156131505761314f612a88565b5b600061315e85828601612adb565b925050602061316f85828601613124565b9150509250929050565b600067ffffffffffffffff82111561319457613193612c66565b5b602082029050602081019050919050565b60006131b86131b384613179565b612cc6565b905080838252602082019050602084028301858111156131db576131da612ed4565b5b835b8181101561320457806131f08882612adb565b8452602084019350506020810190506131dd565b5050509392505050565b600082601f83011261322357613222612c4b565b5b81356132338482602086016131a5565b91505092915050565b6000806040838503121561325357613252612a88565b5b600083013567ffffffffffffffff81111561327157613270612a8d565b5b61327d8582860161320e565b925050602083013567ffffffffffffffff81111561329e5761329d612a8d565b5b6132aa85828601612f42565b9150509250929050565b600081519050919050565b600082825260208201905092915050565b6000819050602082019050919050565b6132e981612af0565b82525050565b60006132fb83836132e0565b60208301905092915050565b6000602082019050919050565b600061331f826132b4565b61332981856132bf565b9350613334836132d0565b8060005b8381101561336557815161334c88826132ef565b975061335783613307565b925050600181019050613338565b5085935050505092915050565b6000602082019050818103600083015261338c8184613314565b905092915050565b61339d81612ab2565b82525050565b60006020820190506133b86000830184613394565b92915050565b600080604083850312156133d5576133d4612a88565b5b60006133e385828601612adb565b92505060206133f485828601612adb565b9150509250929050565b600080600080600060a0868803121561341a57613419612a88565b5b600061342888828901612adb565b955050602061343988828901612adb565b945050604061344a88828901612b11565b935050606061345b88828901612b11565b925050608086013567ffffffffffffffff81111561347c5761347b612a8d565b5b61348888828901612fe3565b9150509295509295909350565b7f4e487b7100000000000000000000000000000000000000000000000000000000600052602260045260246000fd5b600060028204905060018216806134dc57607f821691505b6020821081036134ef576134ee613495565b5b50919050565b600081905092915050565b600061350b82612dda565b61351581856134f5565b9350613525818560208601612df6565b80840191505092915050565b7f2e6a736f6e000000000000000000000000000000000000000000000000000000600082015250565b60006135676005836134f5565b915061357282613531565b600582019050919050565b60006135898285613500565b91506135958284613500565b91506135a08261355a565b91508190509392505050565b60006040820190506135c16000830185613394565b6135ce6020830184613394565b9392505050565b60006040820190506135ea6000830185612b66565b6135f76020830184612b66565b9392505050565b7f4e487b7100000000000000000000000000000000000000000000000000000000600052603260045260246000fd5b7f43616e6e6f74206d696e742030206f72206e65677469766520616d6f756e7400600082015250565b6000613663601f83612de5565b915061366e8261362d565b602082019050919050565b6000602082019050818103600083015261369281613656565b9050919050565b7f4d6178696d756e203130206d696e7420617420612074696d6500000000000000600082015250565b60006136cf601983612de5565b91506136da82613699565b602082019050919050565b600060208201905081810360008301526136fe816136c2565b9050919050565b7f496e737566666963656e74206d696e7420616c6c6f77656e6365000000000000600082015250565b600061373b601a83612de5565b915061374682613705565b602082019050919050565b6000602082019050818103600083015261376a8161372e565b9050919050565b7f416c6c207072657265717569736974657320636865636b207061737365640000600082015250565b60006137a7601e83612de5565b91506137b282613771565b602082019050919050565b600060408201905081810360008301526137d68161379a565b90506137e56020830184612b66565b92915050565b7f416c6c20746f6b656e20636f756e742067656e65726174656400000000000000600082015250565b6000613821601983612de5565b915061382c826137eb565b602082019050919050565b6000604082019050818103600083015261385081613814565b905061385f6020830184612b66565b92915050565b7f4e487b7100000000000000000000000000000000000000000000000000000000600052601160045260246000fd5b600061389f82612af0565b91507fffffffffffffffffffffffffffffffffffffffffffffffffffffffffffffffff82036138d1576138d0613865565b5b600182019050919050565b7f49662073696e676c6520636865636b6564000000000000000000000000000000600082015250565b6000613912601183612de5565b915061391d826138dc565b602082019050919050565b6000604082019050818103600083015261394181613905565b90506139506020830184612b66565b92915050565b7f7072656d696e7400000000000000000000000000000000000000000000000000600082015250565b600061398c600783612de5565b915061399782613956565b602082019050919050565b600060408201905081810360008301526139bb8161397f565b90506139ca6020830184612b66565b92915050565b60006139db82612af0565b91506139e683612af0565b92508282039050818111156139fe576139fd613865565b5b92915050565b60006060820190508181036000830152613a1e8186613314565b90508181036020830152613a328185613314565b9050613a416040830184612b66565b949350505050565b7f43616c6c6572206973206e6f7420616e2061646d696e00000000000000000000600082015250565b6000613a7f601683612de5565b9150613a8a82613a49565b602082019050919050565b60006020820190508181036000830152613aae81613a72565b9050919050565b7f416c6c6f77616e636520696e6372656d656e742068617320746f20626520706f60008201527f7369746976650000000000000000000000000000000000000000000000000000602082015250565b6000613b11602683612de5565b9150613b1c82613ab5565b604082019050919050565b60006020820190508181036000830152613b4081613b04565b9050919050565b6000613b5282612af0565b9150613b5d83612af0565b9250828201905080821115613b7557613b74613865565b5b92915050565b7f416c6c6f77616e636520746f206465637265617365206578636565647320637560008201527f7272656e7420616c6c6f77616e63650000000000000000000000000000000000602082015250565b6000613bd7602f83612de5565b9150613be282613b7b565b604082019050919050565b60006020820190508181036000830152613c0681613bca565b9050919050565b60008190508160005260206000209050919050565b60006020601f8301049050919050565b600082821b905092915050565b600060088302613c6f7fffffffffffffffffffffffffffffffffffffffffffffffffffffffffffffffff82613c32565b613c798683613c32565b95508019841693508086168417925050509392505050565b6000819050919050565b6000613cb6613cb1613cac84612af0565b613c91565b612af0565b9050919050565b6000819050919050565b613cd083613c9b565b613ce4613cdc82613cbd565b848454613c3f565b825550505050565b600090565b613cf9613cec565b613d04818484613cc7565b505050565b5b81811015613d2857613d1d600082613cf1565b600181019050613d0a565b5050565b601f821115613d6d57613d3e81613c0d565b613d4784613c22565b81016020851015613d56578190505b613d6a613d6285613c22565b830182613d09565b50505b505050565b600082821c905092915050565b6000613d9060001984600802613d72565b1980831691505092915050565b6000613da98383613d7f565b9150826002028217905092915050565b613dc282612dda565b67ffffffffffffffff811115613ddb57613dda612c66565b5b613de582546134c4565b613df0828285613d2c565b600060209050601f831160018114613e235760008415613e11578287015190505b613e1b8582613d9d565b865550613e83565b601f198416613e3186613c0d565b60005b82811015613e5957848901518255600182019150602085019450602081019050613e34565b86831015613e765784890151613e72601f891682613d7f565b8355505b6001600288020188555050505b505050505050565b7f4e487b7100000000000000000000000000000000000000000000000000000000600052601260045260246000fd5b6000819050919050565b6000819050919050565b613edf613eda82613eba565b613ec4565b82525050565b60008160601b9050919050565b6000613efd82613ee5565b9050919050565b6000613f0f82613ef2565b9050919050565b613f27613f2282612ab2565b613f04565b82525050565b6000819050919050565b613f48613f4382612af0565b613f2d565b82525050565b6000613f5a8286613ece565b602082019150613f6a8285613f16565b601482019150613f7a8284613f37565b602082019150819050949350505050565b6000613f9682612af0565b9150613fa183612af0565b925082613fb157613fb0613e8b565b5b828206905092915050565b6000613fc88286613f37565b602082019150613fd88285613f37565b602082019150613fe88284613f16565b601482019150819050949350505050565b600060808201905061400e6000830187613394565b61401b6020830186612b66565b6140286040830185612b66565b6140356060830184612b66565b95945050505050565b600060408201905081810360008301526140588185613314565b9050818103602083015261406c8184613314565b90509392505050565b600081519050919050565b600082825260208201905092915050565b600061409c82614075565b6140a68185614080565b93506140b6818560208601612df6565b6140bf81612c55565b840191505092915050565b600060a0820190506140df6000830188613394565b6140ec6020830187613394565b6140f96040830186612b66565b6141066060830185612b66565b81810360808301526141188184614091565b90509695505050505050565b60008151905061413381612bbc565b92915050565b60006020828403121561414f5761414e612a88565b5b600061415d84828501614124565b91505092915050565b600060a08201905061417b6000830188613394565b6141886020830187613394565b818103604083015261419a8186613314565b905081810360608301526141ae8185613314565b905081810360808301526141c28184614091565b9050969550505050505056fea2646970667358221220cef0d9555a08d0c8aaf7b8be1833f067c315489c0f69ce4e05c1925180ad24d264736f6c6343000818003368747470733a2f2f70656163682d656c6563747269632d636f772d3233352e6d7970696e6174612e636c6f75642f697066732f516d6152543975687878576a7a746663416f39734b58487279386136784b51416456354278486344354e715636762f",
  "linkReferences": {},
  "deployedLinkReferences": {}
}